:020000040800F2
:100000007004002045010008B1020008A9020008A0
:10001000AD0200088D010008810700080000000003
:10002000000000000000000000000000B103000814
:100030009101000800000000B3020008C504000898
:100040005F0100085F0100085F0100085F01000810
:100050005F0100085F0100085F0100085F01000800
:100060005F0100085F0100085F0100085F010008F0
:100070005F0100085F0100085F0100085F010008E0
:100080005F0100085F0100085F0100085F010008D0
:100090005F0100085F0100085F0100085F010008C0
:1000A0005F0100085F0100085F0100085F010008B0
:1000B0005F0100085F0100085F0100085F010008A0
:1000C0005F0100085F0100085F0100085F01000890
:1000D0005F0100085F0100085F0100085F01000880
:1000E0005F0100085F0100085F0100085F01000870
:1000F0005F0100085F0100085F0100085F01000860
:100100005F0100085F0100085F0100085F0100084F
:100110005F0100085F0100085F0100085F0100083F
:100120005F0100085F0100085F0100085F0100082F
:10013000DFF80CD000F018F80048004791090008DB
:10014000700400200648804706480047FEE7FEE7A7
:10015000FEE7FEE7FEE7FEE7FEE7FEE7FEE7FEE777
:10016000C904000831010008064C074D06E0E068AC
:1001700040F0010394E8070098471034AC42F6D3EE
:10018000FFF7DAFFE4090008040A000800BFFEE7F1
:1001900070472DE9F041024600250026002000238B
:1001A0000024002791F803C00CF00F0591F803C05C
:1001B0000CF0100CBCF1000F03D091F802C04CEA17
:1001C000050591F800C0BCF1000F31D01468002083
:1001D0002BE04FF0010C0CFA00F3B1F800C00CEA70
:1001E00003069E4220D183004FF00F0C0CFA03F758
:1001F000BC4305FA03FC4CEA040491F803C0BCF1CB
:10020000280F06D14FF0010C0CFA00FCC2F814C004
:100210000AE091F803C0BCF1480F05D14FF0010C82
:100220000CFA00FCC2F810C0401C0828D1D314609E
:10023000B1F800C0BCF1FF0F34DD546800202EE09F
:1002400000F1080C4FF0010808FA0CF3B1F800C0F7
:100250000CEA03069E4221D183004FF00F0C0CFAEA
:1002600003F7BC4305FA03FC4CEA040491F803C00D
:10027000BCF1280F05D100F1080C08FA0CF8C2F8FF
:10028000148091F803C0BCF1480F07D100F1080CAD
:100290004FF0010808FA0CF8C2F81080401C08283A
:1002A000CED35460BDE8F08100BFFEE700BFFEE79B
:1002B0007047704729B1064A92690243044B9A611C
:1002C00004E0034A92698243014B9A61704700003F
:1002D0000010024030B500210022002400232D4DE3
:1002E0006D6805F00C0121B1042905D0082923D13E
:1002F00005E0294D056022E0284D05601FE0254DF1
:100300006D6805F47012234D6D6805F48034022584
:1003100005EB92421CB9224D554305600BE01D4D83
:100320006D6805F400351DB11E4D5543056002E0B2
:100330001A4D5543056002E0174D056000BF00BF30
:10034000144D6D6805F0F0010909174D6B5C0568E7
:10035000DD4045600F4D6D6805F4E061090A124DFE
:100360006B5C4568DD4085600A4D6D6805F4605141
:10037000C90A0D4D6B5C4568DD40C560054D6D6873
:1003800005F44041890B094D6B5CC568B5FBF3F57D
:10039000056130BD0010024000127A00001BB7005A
:1003A00000093D00808D5B00140000202400002027
:1003B000704710B500F002F810BD00000CB5002029
:1003C000019000903348006840F480303149086063
:1003D00000BF3048006800F4003000900198401CD5
:1003E0000190009818B90198B0F5A06FF1D1294893
:1003F000006800F4003010B10120009001E00020FE
:1004000000900098012843D12348006840F0100074
:10041000214908600846006820F00300086008468B
:10042000006840F0020008601A48406819494860B6
:100430000846406848600846406840F4806048606C
:100440000846406820F47C1048600846406840F444
:10045000502048600846006840F08070086000BF87
:100460000C48006800F000700028F9D00948406886
:1004700020F00300074948600846406840F0020049
:10048000486000BF0348406800F00C000828F9D11C
:100490000CBD00000010024000200240042808D1DA
:1004A0004FF0E021096941F004014FF0E0221161B1
:1004B00007E04FF0E021096921F004014FF0E0224C
:1004C000116170477047000010B51348006840F094
:1004D00001001149086008464068104908400E496B
:1004E0004860084600680E4908400B490860084605
:1004F000006820F4802008600846406820F4FE0070
:1005000048604FF41F008860FFF753FF4FF0006012
:100510000449086010BD0000001002400000FFF810
:10052000FFFFF6FE08ED00E000B501200549086078
:1005300000F0A0F900200449C1F8800100F0A1F901
:1005400000BD0000800121420000214200B50120D1
:100550000549086000F095F900200449C1F88001C0
:1005600000F088F900BD0000800121420000214216
:1005700000B585B0012144F20400FFF79BFE4FF463
:100580000070ADF8100018208DF8130003208DF8CE
:10059000120004A91C48FFF7FCFD4FF48060ADF881
:1005A000100004208DF8130003208DF8120004A918
:1005B0001548FFF7EEFD4FF4E13000900020ADF854
:1005C0000400ADF80600ADF80800ADF80C000C20F2
:1005D000ADF80A0069460D4800F062F840210B486A
:1005E00000F016F8012240F22551084800F032F8D8
:1005F000012240F22771054800F02CF80121034840
:1006000000F00FF805B000BD0008014000380140BF
:1006100001F40072B2F5007F00D100BFCA4302802E
:10062000704721B1828942F40052828104E08289BC
:100630004DF6FF731A408281704702460020B1F5E3
:10064000007F00D100BF13880B400BB1012000E0F8
:1006500000207047F0B50346002400260025002046
:1006600040F66A17B94200D100BF1846C1F34214E0
:1006700001F01F06012707FA06F5012C01D10C3005
:1006800004E0022C01D1103000E014301AB10768E8
:100690002F43076002E00768AF430760F0BD00002A
:1006A0002DE9F04786B005460E460024A24600BF5D
:1006B000A1460027B08900B100BF2F462C8A4CF616
:1006C000FF700440F08804432C82AC894EF6F3108E
:1006D0000440B08831890843718908430443AC81E0
:1006E000AC8A4FF6FF400440B0890443AC8201A8B5
:1006F000FFF7F0FD1F48874202D1DDF810A001E0AE
:10070000DDF80CA0A88900F4004040B10AEBCA0053
:1007100000EB0A1031684900B0FBF1F807E00AEB82
:10072000CA0000EB0A1031688900B0FBF1F86420C0
:10073000B8FBF0F004012009642101FB1089A889AD
:1007400000F4004040B1322000EBC900B0FBF1F0F2
:1007500000F00700044308E0322000EB0910642198
:10076000B0FBF1F000F00F0004432C8106B0BDE8AF
:10077000F087000000380140C1F308028280704712
:1007800000BFFEE708B501210420FFF793FD01201B
:10079000ADF8000010208DF8030003208DF8020052
:1007A00069460248FFF7F5FC08BD0000000801405B
:1007B00010B50020064908603C2000F0B1F8012087
:1007C0000449C1F8800100200149086010BD000003
:1007D000800121420000214200B5024600230CE0C6
:1007E00002F40000B0F5000F02D1FFF7AFFE01E008
:1007F000FFF79AFE5200581CC3B2182BF0DB00BD65
:1008000010B5002406E0064951F82400FFF7E4FF84
:10081000601CC4B2102CF6DBFFF7CAFF10BD00004D
:100820002C000020014A024900F013B86D090008AD
:100830006C00002002E008C8121F08C1002AFAD18B
:1008400070477047002001E001C1121F002AFBD150
:1008500070472DE9F04116460F460446002503E097
:100860003946B047641C6D1C20780028F8D1284612
:10087000BDE8F081002001E0411CC8B20128FBDB8B
:100880007047002001E0411CC8B20C28FBDB704718
:1008900010B56FF00400FFF701FE0A4800680A492E
:1008A000B0FBF1F0094908700846007800EB400100
:1008B000C1EBC0104FF6FF7101EAC0000449088087
:1008C00010BD00000000002000127A002800002067
:1008D0002A0000200146114A12884A434FF0E023C3
:1008E0005A6100229A611A46126942F001021A61A5
:1008F00000BF4FF0E022106900F001021AB100F4CD
:100900008032002AF5D04FF0E022126922F0010275
:100910004FF0E0231A6100229A6170472A000020FC
:100920000146114A12784A434FF0E0235A610022EF
:100930009A611A46126942F001021A6100BF4FF033
:10094000E022106900F001021AB100F48032002A9E
:10095000F5D04FF0E022126922F001024FF0E023BF
:100960001A6100229A6170472800002070B5044681
:100970000D46E1B20548FFF7FFFE00BF80210348A6
:10098000FFF75BFE0028F9D0204670BD003801401B
:1009900070B5FFF77DFFFFF7EBFDFFF7F3FE0CA04F
:1009A000FFF740FFFFF72CFF0BA0FFF73BFF4FF4D3
:1009B0007A70FFF78FFF094D002403E0084840F8E4
:1009C0002450641C102CF9DBFFF71AFF002070BDC7
:1009D0007465737400000000656E64009314FF007A
:1009E0002C000020040A0008000000207000000015
:1009F00034080008740A0008700000200004000099
:100A00004408000800A24A040000000000000000A2
:100A100001020304060708090000000001020304A4
:100A2000010203040607080902040608000000008A
:100A3000FFFFFF00FFFFFF00FFFFFF00FFFFFF00C2
:100A40000000FF000000FF000000FF000000FF00AA
:100A5000FF000000FF000000FF000000FF0000009A
:100A600000FF000000FF000000FF000000FF00008A
:040A70000000000082
:0400000508000131BD
:00000001FF
